{
  "_format": "hh-sol-artifact-1",
  "contractName": "safeAlert",
  "sourceName": "contracts/safeAlert.sol",
  "abi": [
    {
      "inputs": [],
      "stateMutability": "nonpayable",
      "type": "constructor"
    },
    {
      "anonymous": false,
      "inputs": [
        {
          "indexed": true,
          "internalType": "address",
          "name": "owner",
          "type": "address"
        },
        {
          "indexed": true,
          "internalType": "address",
          "name": "approved",
          "type": "address"
        },
        {
          "indexed": true,
          "internalType": "uint256",
          "name": "tokenId",
          "type": "uint256"
        }
      ],
      "name": "Approval",
      "type": "event"
    },
    {
      "anonymous": false,
      "inputs": [
        {
          "indexed": true,
          "internalType": "address",
          "name": "owner",
          "type": "address"
        },
        {
          "indexed": true,
          "internalType": "address",
          "name": "operator",
          "type": "address"
        },
        {
          "indexed": false,
          "internalType": "bool",
          "name": "approved",
          "type": "bool"
        }
      ],
      "name": "ApprovalForAll",
      "type": "event"
    },
    {
      "anonymous": false,
      "inputs": [
        {
          "indexed": true,
          "internalType": "address",
          "name": "from",
          "type": "address"
        },
        {
          "indexed": true,
          "internalType": "address",
          "name": "to",
          "type": "address"
        },
        {
          "indexed": true,
          "internalType": "uint256",
          "name": "tokenId",
          "type": "uint256"
        }
      ],
      "name": "Transfer",
      "type": "event"
    },
    {
      "anonymous": false,
      "inputs": [
        {
          "indexed": false,
          "internalType": "uint256",
          "name": "tokenId",
          "type": "uint256"
        },
        {
          "indexed": false,
          "internalType": "address",
          "name": "user",
          "type": "address"
        },
        {
          "indexed": false,
          "internalType": "uint8",
          "name": "qualityReview",
          "type": "uint8"
        }
      ],
      "name": "approvedToken",
      "type": "event"
    },
    {
      "inputs": [
        {
          "internalType": "address",
          "name": "to",
          "type": "address"
        },
        {
          "internalType": "uint256",
          "name": "tokenId",
          "type": "uint256"
        }
      ],
      "name": "approve",
      "outputs": [],
      "stateMutability": "nonpayable",
      "type": "function"
    },
    {
      "inputs": [
        {
          "internalType": "address",
          "name": "owner",
          "type": "address"
        }
      ],
      "name": "balanceOf",
      "outputs": [
        {
          "internalType": "uint256",
          "name": "",
          "type": "uint256"
        }
      ],
      "stateMutability": "view",
      "type": "function"
    },
    {
      "inputs": [
        {
          "internalType": "uint256",
          "name": "tokenId",
          "type": "uint256"
        }
      ],
      "name": "getApproved",
      "outputs": [
        {
          "internalType": "address",
          "name": "",
          "type": "address"
        }
      ],
      "stateMutability": "view",
      "type": "function"
    },
    {
      "inputs": [
        {
          "internalType": "address",
          "name": "owner",
          "type": "address"
        },
        {
          "internalType": "address",
          "name": "operator",
          "type": "address"
        }
      ],
      "name": "isApprovedForAll",
      "outputs": [
        {
          "internalType": "bool",
          "name": "",
          "type": "bool"
        }
      ],
      "stateMutability": "view",
      "type": "function"
    },
    {
      "inputs": [
        {
          "internalType": "string",
          "name": "tokenURI",
          "type": "string"
        }
      ],
      "name": "mint",
      "outputs": [],
      "stateMutability": "nonpayable",
      "type": "function"
    },
    {
      "inputs": [],
      "name": "name",
      "outputs": [
        {
          "internalType": "string",
          "name": "",
          "type": "string"
        }
      ],
      "stateMutability": "view",
      "type": "function"
    },
    {
      "inputs": [
        {
          "internalType": "uint256",
          "name": "tokenId",
          "type": "uint256"
        }
      ],
      "name": "ownerOf",
      "outputs": [
        {
          "internalType": "address",
          "name": "",
          "type": "address"
        }
      ],
      "stateMutability": "view",
      "type": "function"
    },
    {
      "inputs": [
        {
          "internalType": "address",
          "name": "from",
          "type": "address"
        },
        {
          "internalType": "address",
          "name": "to",
          "type": "address"
        },
        {
          "internalType": "uint256",
          "name": "tokenId",
          "type": "uint256"
        }
      ],
      "name": "safeTransferFrom",
      "outputs": [],
      "stateMutability": "nonpayable",
      "type": "function"
    },
    {
      "inputs": [
        {
          "internalType": "address",
          "name": "from",
          "type": "address"
        },
        {
          "internalType": "address",
          "name": "to",
          "type": "address"
        },
        {
          "internalType": "uint256",
          "name": "tokenId",
          "type": "uint256"
        },
        {
          "internalType": "bytes",
          "name": "data",
          "type": "bytes"
        }
      ],
      "name": "safeTransferFrom",
      "outputs": [],
      "stateMutability": "nonpayable",
      "type": "function"
    },
    {
      "inputs": [
        {
          "internalType": "address",
          "name": "operator",
          "type": "address"
        },
        {
          "internalType": "bool",
          "name": "approved",
          "type": "bool"
        }
      ],
      "name": "setApprovalForAll",
      "outputs": [],
      "stateMutability": "nonpayable",
      "type": "function"
    },
    {
      "inputs": [
        {
          "internalType": "bytes4",
          "name": "interfaceId",
          "type": "bytes4"
        }
      ],
      "name": "supportsInterface",
      "outputs": [
        {
          "internalType": "bool",
          "name": "",
          "type": "bool"
        }
      ],
      "stateMutability": "view",
      "type": "function"
    },
    {
      "inputs": [],
      "name": "symbol",
      "outputs": [
        {
          "internalType": "string",
          "name": "",
          "type": "string"
        }
      ],
      "stateMutability": "view",
      "type": "function"
    },
    {
      "inputs": [
        {
          "internalType": "uint256",
          "name": "tokenId",
          "type": "uint256"
        }
      ],
      "name": "tokenURI",
      "outputs": [
        {
          "internalType": "string",
          "name": "",
          "type": "string"
        }
      ],
      "stateMutability": "view",
      "type": "function"
    },
    {
      "inputs": [
        {
          "internalType": "address",
          "name": "from",
          "type": "address"
        },
        {
          "internalType": "address",
          "name": "to",
          "type": "address"
        },
        {
          "internalType": "uint256",
          "name": "tokenId",
          "type": "uint256"
        }
      ],
      "name": "transferFrom",
      "outputs": [],
      "stateMutability": "nonpayable",
      "type": "function"
    },
    {
      "inputs": [
        {
          "internalType": "uint256[]",
          "name": "tokenIds",
          "type": "uint256[]"
        },
        {
          "internalType": "uint8[]",
          "name": "bountyType",
          "type": "uint8[]"
        }
      ],
      "name": "validate",
      "outputs": [],
      "stateMutability": "nonpayable",
      "type": "function"
    }
  ],
  "bytecode": "0x608060405260006008553480156200001657600080fd5b50604080518082018252600981526853414645515545525960b81b60208083019182528351808501909452600384526229a8a960e91b908401528151919291620000639160009162000094565b5080516200007990600190602084019062000094565b5050600780546001600160a01b031916331790555062000177565b828054620000a2906200013a565b90600052602060002090601f016020900481019282620000c6576000855562000111565b82601f10620000e157805160ff191683800117855562000111565b8280016001018555821562000111579182015b8281111562000111578251825591602001919060010190620000f4565b506200011f92915062000123565b5090565b5b808211156200011f576000815560010162000124565b600181811c908216806200014f57607f821691505b602082108114156200017157634e487b7160e01b600052602260045260246000fd5b50919050565b61163880620001876000396000f3fe608060405234801561001057600080fd5b50600436106100f55760003560e01c806370a0823111610097578063b88d4fde11610066578063b88d4fde146101ff578063c87b56dd14610212578063d85d3d2714610225578063e985e9c51461023857600080fd5b806370a08231146101b05780637da804f9146101d157806395d89b41146101e4578063a22cb465146101ec57600080fd5b8063095ea7b3116100d3578063095ea7b31461016257806323b872dd1461017757806342842e0e1461018a5780636352211e1461019d57600080fd5b806301ffc9a7146100fa57806306fdde0314610122578063081812fc14610137575b600080fd5b61010d610108366004610fef565b610274565b60405190151581526020015b60405180910390f35b61012a6102c6565b6040516101199190611064565b61014a610145366004611077565b610358565b6040516001600160a01b039091168152602001610119565b6101756101703660046110ac565b61037f565b005b6101756101853660046110d6565b61049a565b6101756101983660046110d6565b6104c0565b61014a6101ab366004611077565b6104db565b6101c36101be366004611112565b61053b565b604051908152602001610119565b6101756101df366004611179565b6105c1565b61012a610709565b6101756101fa3660046111e5565b610718565b61017561020d3660046112ad565b610727565b61012a610220366004611077565b61075f565b610175610233366004611329565b610870565b61010d610246366004611372565b6001600160a01b03918216600090815260056020908152604080832093909416825291909152205460ff1690565b60006001600160e01b031982166380ac58cd60e01b14806102a557506001600160e01b03198216635b5e139f60e01b145b806102c057506301ffc9a760e01b6001600160e01b03198316145b92915050565b6060600080546102d5906113a5565b80601f0160208091040260200160405190810160405280929190818152602001828054610301906113a5565b801561034e5780601f106103235761010080835404028352916020019161034e565b820191906000526020600020905b81548152906001019060200180831161033157829003601f168201915b5050505050905090565b6000610363826108a0565b506000908152600460205260409020546001600160a01b031690565b600061038a826104db565b9050806001600160a01b0316836001600160a01b031614156103fd5760405162461bcd60e51b815260206004820152602160248201527f4552433732313a20617070726f76616c20746f2063757272656e74206f776e656044820152603960f91b60648201526084015b60405180910390fd5b336001600160a01b038216148061041957506104198133610246565b61048b5760405162461bcd60e51b815260206004820152603e60248201527f4552433732313a20617070726f76652063616c6c6572206973206e6f7420746f60448201527f6b656e206f776e6572206e6f7220617070726f76656420666f7220616c6c000060648201526084016103f4565b6104958383610902565b505050565b6104a43382610970565b6104955760405162461bcd60e51b81526004016103f4906113e0565b61049583838360405180602001604052806000815250610727565b6000818152600260205260408120546001600160a01b0316806102c05760405162461bcd60e51b8152602060048201526018602482015277115490cdcc8c4e881a5b9d985b1a59081d1bdad95b88125160421b60448201526064016103f4565b60006001600160a01b0382166105a55760405162461bcd60e51b815260206004820152602960248201527f4552433732313a2061646472657373207a65726f206973206e6f7420612076616044820152683634b21037bbb732b960b91b60648201526084016103f4565b506001600160a01b031660009081526003602052604090205490565b6007546001600160a01b031633146105d857600080fd5b60005b6105e6600185611444565b8161ffff1610156107025760016009600087878561ffff1681811061060d5761060d61145b565b90506020020135815260200190815260200160002060006101000a81548160ff0219169083151502179055507ff52eeee42b79e7a948fc177ca6d2e475ee2c685967c7284ee10efc4ef3d4e71385858361ffff168181106106705761067061145b565b9050602002013561069c87878561ffff168181106106905761069061145b565b905060200201356104db565b85858561ffff168181106106b2576106b261145b565b90506020020160208101906106c79190611471565b604080519384526001600160a01b03909216602084015260ff169082015260600160405180910390a1806106fa81611494565b9150506105db565b5050505050565b6060600180546102d5906113a5565b6107233383836109ee565b5050565b6107313383610970565b61074d5760405162461bcd60e51b81526004016103f4906113e0565b61075984848484610abd565b50505050565b606061076a826108a0565b60008281526006602052604081208054610783906113a5565b80601f01602080910402602001604051908101604052809291908181526020018280546107af906113a5565b80156107fc5780601f106107d1576101008083540402835291602001916107fc565b820191906000526020600020905b8154815290600101906020018083116107df57829003601f168201915b50505050509050600061081a60408051602081019091526000815290565b905080516000141561082d575092915050565b81511561085f5780826040516020016108479291906114b6565b60405160208183030381529060405292505050919050565b61086884610ae5565b949350505050565b61087c33600854610b59565b61088860085482610c9b565b60088054906000610898836114e5565b919050555050565b6000818152600260205260409020546001600160a01b03166108ff5760405162461bcd60e51b8152602060048201526018602482015277115490cdcc8c4e881a5b9d985b1a59081d1bdad95b88125160421b60448201526064016103f4565b50565b600081815260046020526040902080546001600160a01b0319166001600160a01b0384169081179091558190610937826104db565b6001600160a01b03167f8c5be1e5ebec7d5bd14f71427d1e84f3dd0314c0f7b2291e5b200ac8c7c3b92560405160405180910390a45050565b60008061097c836104db565b9050806001600160a01b0316846001600160a01b031614806109c357506001600160a01b0380821660009081526005602090815260408083209388168352929052205460ff165b806108685750836001600160a01b03166109dc84610358565b6001600160a01b031614949350505050565b816001600160a01b0316836001600160a01b03161415610a505760405162461bcd60e51b815260206004820152601960248201527f4552433732313a20617070726f766520746f2063616c6c65720000000000000060448201526064016103f4565b6001600160a01b03838116600081815260056020908152604080832094871680845294825291829020805460ff191686151590811790915591519182527f17307eab39ab6107e8899845ad3d59bd9653f200f220920489ca2b5937696c31910160405180910390a3505050565b610ac984848484610d35565b6107595760405162461bcd60e51b81526004016103f490611500565b6060610af0826108a0565b6000610b0760408051602081019091526000815290565b90506000815111610b275760405180602001604052806000815250610b52565b80610b3184610e42565b604051602001610b429291906114b6565b6040516020818303038152906040525b9392505050565b6001600160a01b038216610baf5760405162461bcd60e51b815260206004820181905260248201527f4552433732313a206d696e7420746f20746865207a65726f206164647265737360448201526064016103f4565b6000818152600260205260409020546001600160a01b031615610c145760405162461bcd60e51b815260206004820152601c60248201527f4552433732313a20746f6b656e20616c7265616479206d696e7465640000000060448201526064016103f4565b6001600160a01b0382166000908152600360205260408120805460019290610c3d908490611552565b909155505060008181526002602052604080822080546001600160a01b0319166001600160a01b03861690811790915590518392907fddf252ad1be2c89b69c2b068fc378daa952ba7f163c4a11628f55a4df523b3ef908290a45050565b6000828152600260205260409020546001600160a01b0316610d165760405162461bcd60e51b815260206004820152602e60248201527f45524337323155524953746f726167653a2055524920736574206f66206e6f6e60448201526d32bc34b9ba32b73a103a37b5b2b760911b60648201526084016103f4565b6000828152600660209081526040909120825161049592840190610f40565b60006001600160a01b0384163b15610e3757604051630a85bd0160e11b81526001600160a01b0385169063150b7a0290610d7990339089908890889060040161156a565b602060405180830381600087803b158015610d9357600080fd5b505af1925050508015610dc3575060408051601f3d908101601f19168201909252610dc0918101906115a7565b60015b610e1d573d808015610df1576040519150601f19603f3d011682016040523d82523d6000602084013e610df6565b606091505b508051610e155760405162461bcd60e51b81526004016103f490611500565b805181602001fd5b6001600160e01b031916630a85bd0160e11b149050610868565b506001949350505050565b606081610e665750506040805180820190915260018152600360fc1b602082015290565b8160005b8115610e905780610e7a816114e5565b9150610e899050600a836115da565b9150610e6a565b60008167ffffffffffffffff811115610eab57610eab611221565b6040519080825280601f01601f191660200182016040528015610ed5576020820181803683370190505b5090505b841561086857610eea600183611444565b9150610ef7600a866115ee565b610f02906030611552565b60f81b818381518110610f1757610f1761145b565b60200101906001600160f81b031916908160001a905350610f39600a866115da565b9450610ed9565b828054610f4c906113a5565b90600052602060002090601f016020900481019282610f6e5760008555610fb4565b82601f10610f8757805160ff1916838001178555610fb4565b82800160010185558215610fb4579182015b82811115610fb4578251825591602001919060010190610f99565b50610fc0929150610fc4565b5090565b5b80821115610fc05760008155600101610fc5565b6001600160e01b0319811681146108ff57600080fd5b60006020828403121561100157600080fd5b8135610b5281610fd9565b60005b8381101561102757818101518382015260200161100f565b838111156107595750506000910152565b6000815180845261105081602086016020860161100c565b601f01601f19169290920160200192915050565b602081526000610b526020830184611038565b60006020828403121561108957600080fd5b5035919050565b80356001600160a01b03811681146110a757600080fd5b919050565b600080604083850312156110bf57600080fd5b6110c883611090565b946020939093013593505050565b6000806000606084860312156110eb57600080fd5b6110f484611090565b925061110260208501611090565b9150604084013590509250925092565b60006020828403121561112457600080fd5b610b5282611090565b60008083601f84011261113f57600080fd5b50813567ffffffffffffffff81111561115757600080fd5b6020830191508360208260051b850101111561117257600080fd5b9250929050565b6000806000806040858703121561118f57600080fd5b843567ffffffffffffffff808211156111a757600080fd5b6111b38883890161112d565b909650945060208701359150808211156111cc57600080fd5b506111d98782880161112d565b95989497509550505050565b600080604083850312156111f857600080fd5b61120183611090565b91506020830135801515811461121657600080fd5b809150509250929050565b634e487b7160e01b600052604160045260246000fd5b600067ffffffffffffffff8084111561125257611252611221565b604051601f8501601f19908116603f0116810190828211818310171561127a5761127a611221565b8160405280935085815286868601111561129357600080fd5b858560208301376000602087830101525050509392505050565b600080600080608085870312156112c357600080fd5b6112cc85611090565b93506112da60208601611090565b925060408501359150606085013567ffffffffffffffff8111156112fd57600080fd5b8501601f8101871361130e57600080fd5b61131d87823560208401611237565b91505092959194509250565b60006020828403121561133b57600080fd5b813567ffffffffffffffff81111561135257600080fd5b8201601f8101841361136357600080fd5b61086884823560208401611237565b6000806040838503121561138557600080fd5b61138e83611090565b915061139c60208401611090565b90509250929050565b600181811c908216806113b957607f821691505b602082108114156113da57634e487b7160e01b600052602260045260246000fd5b50919050565b6020808252602e908201527f4552433732313a2063616c6c6572206973206e6f7420746f6b656e206f776e6560408201526d1c881b9bdc88185c1c1c9bdd995960921b606082015260800190565b634e487b7160e01b600052601160045260246000fd5b6000828210156114565761145661142e565b500390565b634e487b7160e01b600052603260045260246000fd5b60006020828403121561148357600080fd5b813560ff81168114610b5257600080fd5b600061ffff808316818114156114ac576114ac61142e565b6001019392505050565b600083516114c881846020880161100c565b8351908301906114dc81836020880161100c565b01949350505050565b60006000198214156114f9576114f961142e565b5060010190565b60208082526032908201527f4552433732313a207472616e7366657220746f206e6f6e20455243373231526560408201527131b2b4bb32b91034b6b83632b6b2b73a32b960711b606082015260800190565b600082198211156115655761156561142e565b500190565b6001600160a01b038581168252841660208201526040810183905260806060820181905260009061159d90830184611038565b9695505050505050565b6000602082840312156115b957600080fd5b8151610b5281610fd9565b634e487b7160e01b600052601260045260246000fd5b6000826115e9576115e96115c4565b500490565b6000826115fd576115fd6115c4565b50069056fea264697066735822122076497e9a21de9e212b36903c4b43a1c112dbf0c2d9a1522140d29945d2d2b63364736f6c63430008090033",
  "linkReferences": {},
  "deployedLinkReferences": {}
}