{
  "contractName": "safeAlert",
  "abi": [
    {
      "inputs": [],
      "stateMutability": "nonpayable",
      "type": "constructor"
    },
    {
      "anonymous": false,
      "inputs": [
        {
          "indexed": true,
          "internalType": "address",
          "name": "owner",
          "type": "address"
        },
        {
          "indexed": true,
          "internalType": "address",
          "name": "approved",
          "type": "address"
        },
        {
          "indexed": true,
          "internalType": "uint256",
          "name": "tokenId",
          "type": "uint256"
        }
      ],
      "name": "Approval",
      "type": "event"
    },
    {
      "anonymous": false,
      "inputs": [
        {
          "indexed": true,
          "internalType": "address",
          "name": "owner",
          "type": "address"
        },
        {
          "indexed": true,
          "internalType": "address",
          "name": "operator",
          "type": "address"
        },
        {
          "indexed": false,
          "internalType": "bool",
          "name": "approved",
          "type": "bool"
        }
      ],
      "name": "ApprovalForAll",
      "type": "event"
    },
    {
      "anonymous": false,
      "inputs": [
        {
          "indexed": true,
          "internalType": "address",
          "name": "from",
          "type": "address"
        },
        {
          "indexed": true,
          "internalType": "address",
          "name": "to",
          "type": "address"
        },
        {
          "indexed": true,
          "internalType": "uint256",
          "name": "tokenId",
          "type": "uint256"
        }
      ],
      "name": "Transfer",
      "type": "event"
    },
    {
      "anonymous": false,
      "inputs": [
        {
          "indexed": false,
          "internalType": "uint256",
          "name": "tokenId",
          "type": "uint256"
        }
      ],
      "name": "approvedToken",
      "type": "event"
    },
    {
      "inputs": [
        {
          "internalType": "address",
          "name": "to",
          "type": "address"
        },
        {
          "internalType": "uint256",
          "name": "tokenId",
          "type": "uint256"
        }
      ],
      "name": "approve",
      "outputs": [],
      "stateMutability": "nonpayable",
      "type": "function"
    },
    {
      "inputs": [
        {
          "internalType": "address",
          "name": "owner",
          "type": "address"
        }
      ],
      "name": "balanceOf",
      "outputs": [
        {
          "internalType": "uint256",
          "name": "",
          "type": "uint256"
        }
      ],
      "stateMutability": "view",
      "type": "function"
    },
    {
      "inputs": [
        {
          "internalType": "uint256",
          "name": "tokenId",
          "type": "uint256"
        }
      ],
      "name": "getApproved",
      "outputs": [
        {
          "internalType": "address",
          "name": "",
          "type": "address"
        }
      ],
      "stateMutability": "view",
      "type": "function"
    },
    {
      "inputs": [
        {
          "internalType": "address",
          "name": "owner",
          "type": "address"
        },
        {
          "internalType": "address",
          "name": "operator",
          "type": "address"
        }
      ],
      "name": "isApprovedForAll",
      "outputs": [
        {
          "internalType": "bool",
          "name": "",
          "type": "bool"
        }
      ],
      "stateMutability": "view",
      "type": "function"
    },
    {
      "inputs": [],
      "name": "name",
      "outputs": [
        {
          "internalType": "string",
          "name": "",
          "type": "string"
        }
      ],
      "stateMutability": "view",
      "type": "function"
    },
    {
      "inputs": [
        {
          "internalType": "uint256",
          "name": "tokenId",
          "type": "uint256"
        }
      ],
      "name": "ownerOf",
      "outputs": [
        {
          "internalType": "address",
          "name": "",
          "type": "address"
        }
      ],
      "stateMutability": "view",
      "type": "function"
    },
    {
      "inputs": [
        {
          "internalType": "address",
          "name": "from",
          "type": "address"
        },
        {
          "internalType": "address",
          "name": "to",
          "type": "address"
        },
        {
          "internalType": "uint256",
          "name": "tokenId",
          "type": "uint256"
        }
      ],
      "name": "safeTransferFrom",
      "outputs": [],
      "stateMutability": "nonpayable",
      "type": "function"
    },
    {
      "inputs": [
        {
          "internalType": "address",
          "name": "from",
          "type": "address"
        },
        {
          "internalType": "address",
          "name": "to",
          "type": "address"
        },
        {
          "internalType": "uint256",
          "name": "tokenId",
          "type": "uint256"
        },
        {
          "internalType": "bytes",
          "name": "data",
          "type": "bytes"
        }
      ],
      "name": "safeTransferFrom",
      "outputs": [],
      "stateMutability": "nonpayable",
      "type": "function"
    },
    {
      "inputs": [
        {
          "internalType": "address",
          "name": "operator",
          "type": "address"
        },
        {
          "internalType": "bool",
          "name": "approved",
          "type": "bool"
        }
      ],
      "name": "setApprovalForAll",
      "outputs": [],
      "stateMutability": "nonpayable",
      "type": "function"
    },
    {
      "inputs": [
        {
          "internalType": "bytes4",
          "name": "interfaceId",
          "type": "bytes4"
        }
      ],
      "name": "supportsInterface",
      "outputs": [
        {
          "internalType": "bool",
          "name": "",
          "type": "bool"
        }
      ],
      "stateMutability": "view",
      "type": "function"
    },
    {
      "inputs": [],
      "name": "symbol",
      "outputs": [
        {
          "internalType": "string",
          "name": "",
          "type": "string"
        }
      ],
      "stateMutability": "view",
      "type": "function"
    },
    {
      "inputs": [
        {
          "internalType": "uint256",
          "name": "tokenId",
          "type": "uint256"
        }
      ],
      "name": "tokenURI",
      "outputs": [
        {
          "internalType": "string",
          "name": "",
          "type": "string"
        }
      ],
      "stateMutability": "view",
      "type": "function"
    },
    {
      "inputs": [
        {
          "internalType": "address",
          "name": "from",
          "type": "address"
        },
        {
          "internalType": "address",
          "name": "to",
          "type": "address"
        },
        {
          "internalType": "uint256",
          "name": "tokenId",
          "type": "uint256"
        }
      ],
      "name": "transferFrom",
      "outputs": [],
      "stateMutability": "nonpayable",
      "type": "function"
    },
    {
      "inputs": [
        {
          "internalType": "uint256",
          "name": "tokenId",
          "type": "uint256"
        },
        {
          "internalType": "string",
          "name": "tokenURI",
          "type": "string"
        }
      ],
      "name": "mint",
      "outputs": [],
      "stateMutability": "nonpayable",
      "type": "function"
    },
    {
      "inputs": [
        {
          "internalType": "uint256",
          "name": "tokenId",
          "type": "uint256"
        }
      ],
      "name": "validate",
      "outputs": [],
      "stateMutability": "nonpayable",
      "type": "function"
    }
  ],
  "bytecode": "0x60806040523480156200001157600080fd5b506040518060400160405280600981526020017f53414645515545525900000000000000000000000000000000000000000000008152506040518060400160405280600381526020017f535152000000000000000000000000000000000000000000000000000000000081525081600090816200008f919062000365565b508060019081620000a1919062000365565b50505033600760006101000a81548173ffffffffffffffffffffffffffffffffffffffff021916908373ffffffffffffffffffffffffffffffffffffffff1602179055506200044c565b600081519050919050565b7f4e487b7100000000000000000000000000000000000000000000000000000000600052604160045260246000fd5b7f4e487b7100000000000000000000000000000000000000000000000000000000600052602260045260246000fd5b600060028204905060018216806200016d57607f821691505b60208210810362000183576200018262000125565b5b50919050565b60008190508160005260206000209050919050565b60006020601f8301049050919050565b600082821b905092915050565b600060088302620001ed7fffffffffffffffffffffffffffffffffffffffffffffffffffffffffffffffff82620001ae565b620001f98683620001ae565b95508019841693508086168417925050509392505050565b6000819050919050565b6000819050919050565b600062000246620002406200023a8462000211565b6200021b565b62000211565b9050919050565b6000819050919050565b620002628362000225565b6200027a62000271826200024d565b848454620001bb565b825550505050565b600090565b6200029162000282565b6200029e81848462000257565b505050565b5b81811015620002c657620002ba60008262000287565b600181019050620002a4565b5050565b601f8211156200031557620002df8162000189565b620002ea846200019e565b81016020851015620002fa578190505b6200031262000309856200019e565b830182620002a3565b50505b505050565b600082821c905092915050565b60006200033a600019846008026200031a565b1980831691505092915050565b600062000355838362000327565b9150826002028217905092915050565b6200037082620000eb565b67ffffffffffffffff8111156200038c576200038b620000f6565b5b62000398825462000154565b620003a5828285620002ca565b600060209050601f831160018114620003dd5760008415620003c8578287015190505b620003d4858262000347565b86555062000444565b601f198416620003ed8662000189565b60005b828110156200041757848901518255600182019150602085019450602081019050620003f0565b8683101562000437578489015162000433601f89168262000327565b8355505b6001600288020188555050505b505050505050565b612735806200045c6000396000f3fe608060405234801561001057600080fd5b50600436106100f55760003560e01c806370a0823111610097578063b88d4fde11610066578063b88d4fde14610282578063c87b56dd1461029e578063ce4d01a3146102ce578063e985e9c5146102ea576100f5565b806370a08231146101fc57806377097fc81461022c57806395d89b4114610248578063a22cb46514610266576100f5565b8063095ea7b3116100d3578063095ea7b31461017857806323b872dd1461019457806342842e0e146101b05780636352211e146101cc576100f5565b806301ffc9a7146100fa57806306fdde031461012a578063081812fc14610148575b600080fd5b610114600480360381019061010f91906115ad565b61031a565b60405161012191906115f5565b60405180910390f35b6101326103fc565b60405161013f91906116a9565b60405180910390f35b610162600480360381019061015d9190611701565b61048e565b60405161016f919061176f565b60405180910390f35b610192600480360381019061018d91906117b6565b6104d4565b005b6101ae60048036038101906101a991906117f6565b6105eb565b005b6101ca60048036038101906101c591906117f6565b61064b565b005b6101e660048036038101906101e19190611701565b61066b565b6040516101f3919061176f565b60405180910390f35b61021660048036038101906102119190611849565b61071c565b6040516102239190611885565b60405180910390f35b610246600480360381019061024191906119d5565b6107d3565b005b6102506107eb565b60405161025d91906116a9565b60405180910390f35b610280600480360381019061027b9190611a5d565b61087d565b005b61029c60048036038101906102979190611b3e565b610893565b005b6102b860048036038101906102b39190611701565b6108f5565b6040516102c591906116a9565b60405180910390f35b6102e860048036038101906102e39190611701565b610a07565b005b61030460048036038101906102ff9190611bc1565b610a90565b60405161031191906115f5565b60405180910390f35b60007f80ac58cd000000000000000000000000000000000000000000000000000000007bffffffffffffffffffffffffffffffffffffffffffffffffffffffff1916827bffffffffffffffffffffffffffffffffffffffffffffffffffffffff191614806103e557507f5b5e139f000000000000000000000000000000000000000000000000000000007bffffffffffffffffffffffffffffffffffffffffffffffffffffffff1916827bffffffffffffffffffffffffffffffffffffffffffffffffffffffff1916145b806103f557506103f482610b24565b5b9050919050565b60606000805461040b90611c30565b80601f016020809104026020016040519081016040528092919081815260200182805461043790611c30565b80156104845780601f1061045957610100808354040283529160200191610484565b820191906000526020600020905b81548152906001019060200180831161046757829003601f168201915b5050505050905090565b600061049982610b8e565b6004600083815260200190815260200160002060009054906101000a900473ffffffffffffffffffffffffffffffffffffffff169050919050565b60006104df8261066b565b90508073ffffffffffffffffffffffffffffffffffffffff168373ffffffffffffffffffffffffffffffffffffffff160361054f576040517f08c379a000000000000000000000000000000000000000000000000000000000815260040161054690611cd3565b60405180910390fd5b8073ffffffffffffffffffffffffffffffffffffffff1661056e610bd9565b73ffffffffffffffffffffffffffffffffffffffff16148061059d575061059c81610597610bd9565b610a90565b5b6105dc576040517f08c379a00000000000000000000000000000000000000000000000000000000081526004016105d390611d65565b60405180910390fd5b6105e68383610be1565b505050565b6105fc6105f6610bd9565b82610c9a565b61063b576040517f08c379a000000000000000000000000000000000000000000000000000000000815260040161063290611df7565b60405180910390fd5b610646838383610d2f565b505050565b61066683838360405180602001604052806000815250610893565b505050565b6000806002600084815260200190815260200160002060009054906101000a900473ffffffffffffffffffffffffffffffffffffffff169050600073ffffffffffffffffffffffffffffffffffffffff168173ffffffffffffffffffffffffffffffffffffffff1603610713576040517f08c379a000000000000000000000000000000000000000000000000000000000815260040161070a90611e63565b60405180910390fd5b80915050919050565b60008073ffffffffffffffffffffffffffffffffffffffff168273ffffffffffffffffffffffffffffffffffffffff160361078c576040517f08c379a000000000000000000000000000000000000000000000000000000000815260040161078390611ef5565b60405180910390fd5b600360008373ffffffffffffffffffffffffffffffffffffffff1673ffffffffffffffffffffffffffffffffffffffff168152602001908152602001600020549050919050565b6107dd3383610d34565b6107e78282610f0d565b5050565b6060600180546107fa90611c30565b80601f016020809104026020016040519081016040528092919081815260200182805461082690611c30565b80156108735780601f1061084857610100808354040283529160200191610873565b820191906000526020600020905b81548152906001019060200180831161085657829003601f168201915b5050505050905090565b61088f610888610bd9565b8383610f7a565b5050565b6108a461089e610bd9565b83610c9a565b6108e3576040517f08c379a00000000000000000000000000000000000000000000000000000000081526004016108da90611df7565b60405180910390fd5b6108ef848484846110e6565b50505050565b606061090082610b8e565b600060066000848152602001908152602001600020805461092090611c30565b80601f016020809104026020016040519081016040528092919081815260200182805461094c90611c30565b80156109995780601f1061096e57610100808354040283529160200191610999565b820191906000526020600020905b81548152906001019060200180831161097c57829003601f168201915b5050505050905060006109aa611142565b905060008151036109bf578192505050610a02565b6000825111156109f45780826040516020016109dc929190611f51565b60405160208183030381529060405292505050610a02565b6109fd84611159565b925050505b919050565b600760009054906101000a900473ffffffffffffffffffffffffffffffffffffffff1673ffffffffffffffffffffffffffffffffffffffff163373ffffffffffffffffffffffffffffffffffffffff1614610a6157600080fd5b60016008600083815260200190815260200160002060006101000a81548160ff02191690831515021790555050565b6000600560008473ffffffffffffffffffffffffffffffffffffffff1673ffffffffffffffffffffffffffffffffffffffff16815260200190815260200160002060008373ffffffffffffffffffffffffffffffffffffffff1673ffffffffffffffffffffffffffffffffffffffff16815260200190815260200160002060009054906101000a900460ff16905092915050565b60007f01ffc9a7000000000000000000000000000000000000000000000000000000007bffffffffffffffffffffffffffffffffffffffffffffffffffffffff1916827bffffffffffffffffffffffffffffffffffffffffffffffffffffffff1916149050919050565b610b97816111c1565b610bd6576040517f08c379a0000000000000000000000000000000000000000000000000000000008152600401610bcd90611e63565b60405180910390fd5b50565b600033905090565b816004600083815260200190815260200160002060006101000a81548173ffffffffffffffffffffffffffffffffffffffff021916908373ffffffffffffffffffffffffffffffffffffffff160217905550808273ffffffffffffffffffffffffffffffffffffffff16610c548361066b565b73ffffffffffffffffffffffffffffffffffffffff167f8c5be1e5ebec7d5bd14f71427d1e84f3dd0314c0f7b2291e5b200ac8c7c3b92560405160405180910390a45050565b600080610ca68361066b565b90508073ffffffffffffffffffffffffffffffffffffffff168473ffffffffffffffffffffffffffffffffffffffff161480610ce85750610ce78185610a90565b5b80610d2657508373ffffffffffffffffffffffffffffffffffffffff16610d0e8461048e565b73ffffffffffffffffffffffffffffffffffffffff16145b91505092915050565b505050565b600073ffffffffffffffffffffffffffffffffffffffff168273ffffffffffffffffffffffffffffffffffffffff1603610da3576040517f08c379a0000000000000000000000000000000000000000000000000000000008152600401610d9a90611fc1565b60405180910390fd5b610dac816111c1565b15610dec576040517f08c379a0000000000000000000000000000000000000000000000000000000008152600401610de39061202d565b60405180910390fd5b610df86000838361122d565b6001600360008473ffffffffffffffffffffffffffffffffffffffff1673ffffffffffffffffffffffffffffffffffffffff1681526020019081526020016000206000828254610e48919061207c565b92505081905550816002600083815260200190815260200160002060006101000a81548173ffffffffffffffffffffffffffffffffffffffff021916908373ffffffffffffffffffffffffffffffffffffffff160217905550808273ffffffffffffffffffffffffffffffffffffffff16600073ffffffffffffffffffffffffffffffffffffffff167fddf252ad1be2c89b69c2b068fc378daa952ba7f163c4a11628f55a4df523b3ef60405160405180910390a4610f0960008383611232565b5050565b610f16826111c1565b610f55576040517f08c379a0000000000000000000000000000000000000000000000000000000008152600401610f4c90612144565b60405180910390fd5b80600660008481526020019081526020016000209081610f759190612310565b505050565b8173ffffffffffffffffffffffffffffffffffffffff168373ffffffffffffffffffffffffffffffffffffffff1603610fe8576040517f08c379a0000000000000000000000000000000000000000000000000000000008152600401610fdf9061242e565b60405180910390fd5b80600560008573ffffffffffffffffffffffffffffffffffffffff1673ffffffffffffffffffffffffffffffffffffffff16815260200190815260200160002060008473ffffffffffffffffffffffffffffffffffffffff1673ffffffffffffffffffffffffffffffffffffffff16815260200190815260200160002060006101000a81548160ff0219169083151502179055508173ffffffffffffffffffffffffffffffffffffffff168373ffffffffffffffffffffffffffffffffffffffff167f17307eab39ab6107e8899845ad3d59bd9653f200f220920489ca2b5937696c31836040516110d991906115f5565b60405180910390a3505050565b6110f1848484610d2f565b6110fd84848484611237565b61113c576040517f08c379a0000000000000000000000000000000000000000000000000000000008152600401611133906124c0565b60405180910390fd5b50505050565b606060405180602001604052806000815250905090565b606061116482610b8e565b600061116e611142565b9050600081511161118e57604051806020016040528060008152506111b9565b80611198846113be565b6040516020016111a9929190611f51565b6040516020818303038152906040525b915050919050565b60008073ffffffffffffffffffffffffffffffffffffffff166002600084815260200190815260200160002060009054906101000a900473ffffffffffffffffffffffffffffffffffffffff1673ffffffffffffffffffffffffffffffffffffffff1614159050919050565b505050565b505050565b60006112588473ffffffffffffffffffffffffffffffffffffffff1661151e565b156113b1578373ffffffffffffffffffffffffffffffffffffffff1663150b7a02611281610bd9565b8786866040518563ffffffff1660e01b81526004016112a39493929190612535565b6020604051808303816000875af19250505080156112df57506040513d601f19601f820116820180604052508101906112dc9190612596565b60015b611361573d806000811461130f576040519150601f19603f3d011682016040523d82523d6000602084013e611314565b606091505b506000815103611359576040517f08c379a0000000000000000000000000000000000000000000000000000000008152600401611350906124c0565b60405180910390fd5b805181602001fd5b63150b7a0260e01b7bffffffffffffffffffffffffffffffffffffffffffffffffffffffff1916817bffffffffffffffffffffffffffffffffffffffffffffffffffffffff1916149150506113b6565b600190505b949350505050565b606060008203611405576040518060400160405280600181526020017f30000000000000000000000000000000000000000000000000000000000000008152509050611519565b600082905060005b60008214611437578080611420906125c3565b915050600a82611430919061263a565b915061140d565b60008167ffffffffffffffff811115611453576114526118aa565b5b6040519080825280601f01601f1916602001820160405280156114855781602001600182028036833780820191505090505b5090505b600085146115125760018261149e919061266b565b9150600a856114ad919061269f565b60306114b9919061207c565b60f81b8183815181106114cf576114ce6126d0565b5b60200101907effffffffffffffffffffffffffffffffffffffffffffffffffffffffffffff1916908160001a905350600a8561150b919061263a565b9450611489565b8093505050505b919050565b6000808273ffffffffffffffffffffffffffffffffffffffff163b119050919050565b6000604051905090565b600080fd5b600080fd5b60007fffffffff0000000000000000000000000000000000000000000000000000000082169050919050565b61158a81611555565b811461159557600080fd5b50565b6000813590506115a781611581565b92915050565b6000602082840312156115c3576115c261154b565b5b60006115d184828501611598565b91505092915050565b60008115159050919050565b6115ef816115da565b82525050565b600060208201905061160a60008301846115e6565b92915050565b600081519050919050565b600082825260208201905092915050565b60005b8381101561164a57808201518184015260208101905061162f565b83811115611659576000848401525b50505050565b6000601f19601f8301169050919050565b600061167b82611610565b611685818561161b565b935061169581856020860161162c565b61169e8161165f565b840191505092915050565b600060208201905081810360008301526116c38184611670565b905092915050565b6000819050919050565b6116de816116cb565b81146116e957600080fd5b50565b6000813590506116fb816116d5565b92915050565b6000602082840312156117175761171661154b565b5b6000611725848285016116ec565b91505092915050565b600073ffffffffffffffffffffffffffffffffffffffff82169050919050565b60006117598261172e565b9050919050565b6117698161174e565b82525050565b60006020820190506117846000830184611760565b92915050565b6117938161174e565b811461179e57600080fd5b50565b6000813590506117b08161178a565b92915050565b600080604083850312156117cd576117cc61154b565b5b60006117db858286016117a1565b92505060206117ec858286016116ec565b9150509250929050565b60008060006060848603121561180f5761180e61154b565b5b600061181d868287016117a1565b935050602061182e868287016117a1565b925050604061183f868287016116ec565b9150509250925092565b60006020828403121561185f5761185e61154b565b5b600061186d848285016117a1565b91505092915050565b61187f816116cb565b82525050565b600060208201905061189a6000830184611876565b92915050565b600080fd5b600080fd5b7f4e487b7100000000000000000000000000000000000000000000000000000000600052604160045260246000fd5b6118e28261165f565b810181811067ffffffffffffffff82111715611901576119006118aa565b5b80604052505050565b6000611914611541565b905061192082826118d9565b919050565b600067ffffffffffffffff8211156119405761193f6118aa565b5b6119498261165f565b9050602081019050919050565b82818337600083830152505050565b600061197861197384611925565b61190a565b905082815260208101848484011115611994576119936118a5565b5b61199f848285611956565b509392505050565b600082601f8301126119bc576119bb6118a0565b5b81356119cc848260208601611965565b91505092915050565b600080604083850312156119ec576119eb61154b565b5b60006119fa858286016116ec565b925050602083013567ffffffffffffffff811115611a1b57611a1a611550565b5b611a27858286016119a7565b9150509250929050565b611a3a816115da565b8114611a4557600080fd5b50565b600081359050611a5781611a31565b92915050565b60008060408385031215611a7457611a7361154b565b5b6000611a82858286016117a1565b9250506020611a9385828601611a48565b9150509250929050565b600067ffffffffffffffff821115611ab857611ab76118aa565b5b611ac18261165f565b9050602081019050919050565b6000611ae1611adc84611a9d565b61190a565b905082815260208101848484011115611afd57611afc6118a5565b5b611b08848285611956565b509392505050565b600082601f830112611b2557611b246118a0565b5b8135611b35848260208601611ace565b91505092915050565b60008060008060808587031215611b5857611b5761154b565b5b6000611b66878288016117a1565b9450506020611b77878288016117a1565b9350506040611b88878288016116ec565b925050606085013567ffffffffffffffff811115611ba957611ba8611550565b5b611bb587828801611b10565b91505092959194509250565b60008060408385031215611bd857611bd761154b565b5b6000611be6858286016117a1565b9250506020611bf7858286016117a1565b9150509250929050565b7f4e487b7100000000000000000000000000000000000000000000000000000000600052602260045260246000fd5b60006002820490506001821680611c4857607f821691505b602082108103611c5b57611c5a611c01565b5b50919050565b7f4552433732313a20617070726f76616c20746f2063757272656e74206f776e6560008201527f7200000000000000000000000000000000000000000000000000000000000000602082015250565b6000611cbd60218361161b565b9150611cc882611c61565b604082019050919050565b60006020820190508181036000830152611cec81611cb0565b9050919050565b7f4552433732313a20617070726f76652063616c6c6572206973206e6f7420746f60008201527f6b656e206f776e6572206e6f7220617070726f76656420666f7220616c6c0000602082015250565b6000611d4f603e8361161b565b9150611d5a82611cf3565b604082019050919050565b60006020820190508181036000830152611d7e81611d42565b9050919050565b7f4552433732313a2063616c6c6572206973206e6f7420746f6b656e206f776e6560008201527f72206e6f7220617070726f766564000000000000000000000000000000000000602082015250565b6000611de1602e8361161b565b9150611dec82611d85565b604082019050919050565b60006020820190508181036000830152611e1081611dd4565b9050919050565b7f4552433732313a20696e76616c696420746f6b656e2049440000000000000000600082015250565b6000611e4d60188361161b565b9150611e5882611e17565b602082019050919050565b60006020820190508181036000830152611e7c81611e40565b9050919050565b7f4552433732313a2061646472657373207a65726f206973206e6f74206120766160008201527f6c6964206f776e65720000000000000000000000000000000000000000000000602082015250565b6000611edf60298361161b565b9150611eea82611e83565b604082019050919050565b60006020820190508181036000830152611f0e81611ed2565b9050919050565b600081905092915050565b6000611f2b82611610565b611f358185611f15565b9350611f4581856020860161162c565b80840191505092915050565b6000611f5d8285611f20565b9150611f698284611f20565b91508190509392505050565b7f4552433732313a206d696e7420746f20746865207a65726f2061646472657373600082015250565b6000611fab60208361161b565b9150611fb682611f75565b602082019050919050565b60006020820190508181036000830152611fda81611f9e565b9050919050565b7f4552433732313a20746f6b656e20616c7265616479206d696e74656400000000600082015250565b6000612017601c8361161b565b915061202282611fe1565b602082019050919050565b600060208201905081810360008301526120468161200a565b9050919050565b7f4e487b7100000000000000000000000000000000000000000000000000000000600052601160045260246000fd5b6000612087826116cb565b9150612092836116cb565b9250827fffffffffffffffffffffffffffffffffffffffffffffffffffffffffffffffff038211156120c7576120c661204d565b5b828201905092915050565b7f45524337323155524953746f726167653a2055524920736574206f66206e6f6e60008201527f6578697374656e7420746f6b656e000000000000000000000000000000000000602082015250565b600061212e602e8361161b565b9150612139826120d2565b604082019050919050565b6000602082019050818103600083015261215d81612121565b9050919050565b60008190508160005260206000209050919050565b60006020601f8301049050919050565b600082821b905092915050565b6000600883026121c67fffffffffffffffffffffffffffffffffffffffffffffffffffffffffffffffff82612189565b6121d08683612189565b95508019841693508086168417925050509392505050565b6000819050919050565b600061220d612208612203846116cb565b6121e8565b6116cb565b9050919050565b6000819050919050565b612227836121f2565b61223b61223382612214565b848454612196565b825550505050565b600090565b612250612243565b61225b81848461221e565b505050565b5b8181101561227f57612274600082612248565b600181019050612261565b5050565b601f8211156122c45761229581612164565b61229e84612179565b810160208510156122ad578190505b6122c16122b985612179565b830182612260565b50505b505050565b600082821c905092915050565b60006122e7600019846008026122c9565b1980831691505092915050565b600061230083836122d6565b9150826002028217905092915050565b61231982611610565b67ffffffffffffffff811115612332576123316118aa565b5b61233c8254611c30565b612347828285612283565b600060209050601f83116001811461237a5760008415612368578287015190505b61237285826122f4565b8655506123da565b601f19841661238886612164565b60005b828110156123b05784890151825560018201915060208501945060208101905061238b565b868310156123cd57848901516123c9601f8916826122d6565b8355505b6001600288020188555050505b505050505050565b7f4552433732313a20617070726f766520746f2063616c6c657200000000000000600082015250565b600061241860198361161b565b9150612423826123e2565b602082019050919050565b600060208201905081810360008301526124478161240b565b9050919050565b7f4552433732313a207472616e7366657220746f206e6f6e20455243373231526560008201527f63656976657220696d706c656d656e7465720000000000000000000000000000602082015250565b60006124aa60328361161b565b91506124b58261244e565b604082019050919050565b600060208201905081810360008301526124d98161249d565b9050919050565b600081519050919050565b600082825260208201905092915050565b6000612507826124e0565b61251181856124eb565b935061252181856020860161162c565b61252a8161165f565b840191505092915050565b600060808201905061254a6000830187611760565b6125576020830186611760565b6125646040830185611876565b818103606083015261257681846124fc565b905095945050505050565b60008151905061259081611581565b92915050565b6000602082840312156125ac576125ab61154b565b5b60006125ba84828501612581565b91505092915050565b60006125ce826116cb565b91507fffffffffffffffffffffffffffffffffffffffffffffffffffffffffffffffff8203612600576125ff61204d565b5b600182019050919050565b7f4e487b7100000000000000000000000000000000000000000000000000000000600052601260045260246000fd5b6000612645826116cb565b9150612650836116cb565b9250826126605761265f61260b565b5b828204905092915050565b6000612676826116cb565b9150612681836116cb565b9250828210156126945761269361204d565b5b828203905092915050565b60006126aa826116cb565b91506126b5836116cb565b9250826126c5576126c461260b565b5b828206905092915050565b7f4e487b7100000000000000000000000000000000000000000000000000000000600052603260045260246000fdfea2646970667358221220469e1e323542bec8e2374d953171c97961590cf53e02e9115fe3ec352e72db6264736f6c634300080f0033",
  "immutableReferences": {},
  "source": "// SPDX-License-Identifier: MIT\npragma solidity >=0.4.22 <0.9.0;\nimport \"@openzeppelin/contracts/token/ERC721/extensions/ERC721URIStorage.sol\";\ncontract safeAlert is ERC721URIStorage {\naddress admin;\nmapping(uint256=>bool)ValidationState;\n\nevent approvedToken(uint256 tokenId);\n  constructor()ERC721(\"SAFEQUERY\",\"SQR\")public{\n    admin = msg.sender;\n  }\n  function mint(uint256 tokenId,string memory tokenURI)public{\n_mint(msg.sender,tokenId);\n_setTokenURI(tokenId,tokenURI);\n\n  }\n  function validate(uint256 tokenId)public{\n    require(msg.sender == admin);\n    ValidationState[tokenId] = true;\n  }\nfunction _transfer(\n        address from,\n        address to,\n        uint256 tokenId\n    ) internal override{}\n}\n",
  "sourcePath": "/home/pierre/Documents/GitHub/safeAlert/smart-contracte/contracts/safeAlert.sol",
  "compiler": {
    "name": "solc",
    "version": "0.8.15+commit.e14f2714.Emscripten.clang"
  },
  "schemaVersion": "3.4.8",
  "updatedAt": "2022-07-23T07:41:00.135Z",
  "devdoc": {
    "kind": "dev",
    "methods": {
      "approve(address,uint256)": {
        "details": "See {IERC721-approve}."
      },
      "balanceOf(address)": {
        "details": "See {IERC721-balanceOf}."
      },
      "getApproved(uint256)": {
        "details": "See {IERC721-getApproved}."
      },
      "isApprovedForAll(address,address)": {
        "details": "See {IERC721-isApprovedForAll}."
      },
      "name()": {
        "details": "See {IERC721Metadata-name}."
      },
      "ownerOf(uint256)": {
        "details": "See {IERC721-ownerOf}."
      },
      "safeTransferFrom(address,address,uint256)": {
        "details": "See {IERC721-safeTransferFrom}."
      },
      "safeTransferFrom(address,address,uint256,bytes)": {
        "details": "See {IERC721-safeTransferFrom}."
      },
      "setApprovalForAll(address,bool)": {
        "details": "See {IERC721-setApprovalForAll}."
      },
      "supportsInterface(bytes4)": {
        "details": "See {IERC165-supportsInterface}."
      },
      "symbol()": {
        "details": "See {IERC721Metadata-symbol}."
      },
      "tokenURI(uint256)": {
        "details": "See {IERC721Metadata-tokenURI}."
      },
      "transferFrom(address,address,uint256)": {
        "details": "See {IERC721-transferFrom}."
      }
    },
    "version": 1
  },
  "userdoc": {
    "kind": "user",
    "methods": {},
    "version": 1
  }
}